:100000000C947C060C94C3060C94C3060C94C30693
:100010000C94C3060C94C3060C94C3060C94C3063C
:100020000C94C3060C94C3060C94F9200C94CC21B8
:100030000C9466180C94C3060C94C3060C94C30667
:100040000C94C3060C94C3060C94C3060C94C3060C
:100050000C94C3060C94CE180C94C3060C94C306DF
:100060000C94C3060C94C3060C94C3060C94C306EC
:100070000C94C3060C94C3060C94C3060C94C306DC
:100080000C94C3060C94C3060C94C3060C94C306CC
:100090000C94C3060C94C3060C94C3060C94C306BC
:1000A0000C94C3060C94C3060C94C3060000000015
:1000B0000000000000000000000000000000000040
:1000C0000000000054005500560057005000290061
:1000D00014001A000800150017001C0018000C007E
:1000E000120013004C002A002400250026005200B4
:1000F0002B0004001600070009000A000B000D0089
:100100000E000F00330028002100220023005100C0
:100110000000E1001D001B00060019000500110091
:10012000100036003700E10001511E001F002000C2
:100130004F000000E000E300E20000002C002C0073
:100140000251E2007600E000270063005800000042
:10015000000000000000000000000000000000009F
:10016000000000000000000000000000000054003B
:10017000550056005700500035003A003B003C0047
:100180003D003E003F00400041004200430044006B
:1001900045005F006000610052001E001F0020004B
:1001A00021002200230024002500260027002D0026
:1001B0002E005C005D005E005100000000000000A9
:1001C000000000000000340038002F003000310033
:1001D0000351010059005A005B004F00000000006D
:1001E000000000000000000000000000000000000F
:1001F00000006200630058000000000000000000E2
:100200000070010001000100010001000100010077
:1002100001000100010001000100010001000100D6
:1002200001000100010001000100010001000100C6
:1002300001000100010001000100010001000100B6
:1002400001000100010001000100010001000100A6
:100250000100010001000100010001000100010096
:100260000100010000000100010001000100010087
:100270000100010001000100010001000100010076
:100280000100010001000000010001000100010067
:100290000100010001000100010001000100010056
:1002A000010000000000000000000100010001004A
:1002B0000100010001000100010001000100010036
:1002C0000100010001000100010001000100010026
:1002D0000100010001000100010001000100010016
:1002E00001000100010001000100010001001E02E7
:1002F0001F022002210222022302240225022602DA
:1003000027022D022E020100010001000100000061
:1003100001000100010001000100340238022F0237
:100320003002310201000100010001000100010062
:1003300000000100010001000100010001000100B6
:1003400001000100010001000100010000000000A7
:100350000000000001000100010001000100010097
:100360000100010001000100010001000100010085
:100370000100010001000100010001000100010075
:100380000100010001000100010001000100010065
:100390000100010001000100010001000100010055
:1003A0000100010001000100010001000100010045
:1003B0000100010001000100000001000100010036
:1003C0000100010001000100010001000100010025
:1003D0000100010001000100010000000100010016
:1003E0000100010001000100010001000100010005
:1003F00001000100010000000000000000000100F9
:1004000001000100010001000100010001000100E4
:1004100001000100010001000100010001000100D4
:1004200001000100010001000100010001000100C4
:1004300001000100010001000100010001000100B4
:1004400001000100010001000100010001000100A4
:100450000100010001000100010001000100010094
:100460000100000001000100010001000100010085
:100470000100010001000100010001000100010074
:100480000100010000000100010001000100010065
:100490000100010001000100010001000100010054
:1004A0000000000000000000010001000100010048
:1004B0000100010001000100010001000100010034
:1004C0000100010001000100010001000100010024
:1004D0000100010001000100010001000100010014
:1004E0000100010001000100010001000100010004
:1004F00001000100010001000100010001000100F4
:1005000001000100010001000100010000000100E4
:1005100001000100010001000100010001000100D3
:1005200001000100010001000100010001000000C4
:1005300001000100010001000100010001000100B3
:1005400001000100010001000100000000000000A6
:100550000000010001000100010001000100010094
:100560000100010001000100010001000100010083
:100570000100010001000100010001000100010073
:100580000100010001000100010001000100010063
:100590000100010001000100010001000100010053
:1005A0000100010001000100010001000100010043
:1005B0000100010001000000010001000100010034
:1005C0000100010001000100010001000100010023
:1005D0000100010001000100000001000100010014
:1005E0000100010001000100010001000100010003
:1005F00001000100000000000000000001000100F7
:1006000001000100010001000100010001000100E2
:1006100001000100010001000100010001000100D2
:1006200001000100010001000100010001000100C2
:1006300001000100010001000100010001000100B2
:1006400001000100010001000100010001000100A2
:100650000100010001000100010001000100010092
:100660000000010001000100010001000100010083
:100670000100010001000100010001000100010072
:100680000100000001000100010001000100010063
:100690000100010001000100010001000100000053
:1006A0000000000000000100010001000100010045
:1006B0000100010001000100010001000100010032
:1006C0000100010001000100010001000100010022
:1006D0000100010001000100010001000100010012
:1006E0000100010001000100010001000100010002
:1006F00001000100010001000100010001000100F2
:1007000001000100010001000100000001000100E2
:1007100001000100010001000100010001000100D1
:1007200001000100010001000100010000000100C2
:1007300001000100010001000100010001000100B1
:1007400001000100010001000000000000000000A5
:100750000100010001000100010001000100010091
:100760000100010001000100010001000100010081
:100770000100010001000100010001000100010071
:100780000100010001000100010001000100010061
:100790000100010001000100010001000100010051
:1007A0000100010001000100010001000100010041
:1007B0000100010000000100010001000100010032
:1007C0000100010001000100010001000100010021
:1007D0000100010001000000010001000100010012
:1007E0000100010001000100010001000100010001
:1007F00001000000000000000000010001000100F5
:1008000001000100010001000100010001000100E0
:1008100001000100010001000100010001000100D0
:1008200001000100010001000100010001000100C0
:1008300001000100010001000100010001000100B0
:1008400001000100010001000100010001000100A0
:100850000100010001000100010001000100000091
:100860000100010001000100010001000100010080
:100870000100010001000100010001000100010070
:100880000000010001000100010001000100010061
:100890000100010001000100010001000000000052
:1008A0000000000001000100010001000100010042
:1008B0000100010001000100010001000100010030
:1008C0000100010001000100010001000100010020
:1008D0000100010001000100010001000100010010
:1008E0000100010001000100010001000100010000
:1008F00001000100010001000100010001000100F0
:1009000001000100010001000000010001000100E0
:1009100001000100010001000100010001000100CF
:1009200001000100010001000100000001000100C0
:1009300001000100010001000100010001000100AF
:1009400001000100010000000000000000000100A3
:10095000010001000100010001000100010001008F
:10096000010001000100010001000100010001007F
:10097000010001000100010001000100010001006F
:10098000010001000100010001000100010001005F
:10099000010001000100010001000100010001004F
:1009A000010001000100010001000100010001003F
:1009B0000100000001000100010001000100010030
:1009C000010001000100010001000100010001001F
:1009D0000100010000000100010001000100010010
:1009E00001000100010001000100010001000100FF
:1009F00000000000000000000100010001000100F3
:100A000001000100010001000100010001000100DE
:100A100001000100010001000100010001000100CE
:100A200001000100010001000100010001000100BE
:100A300001000100010001000100010001000100AE
:100A4000010001000100010001000100010001009E
:100A5000010001000100010001000100000001008F
:100A6000010001000100010001000100010001007E
:100A7000010001000100010001000100010000006F
:100A8000010001000100010001000100010001005E
:100A90000100010001000100010000000000000051
:100AA000000001000100010001000100010001003F
:100AB000010001000100010001000100010001002E
:100AC000010001000100010001000100010001001E
:100AD000010001000100010001000100010001000E
:100AE00001000100010001000100010001000100FE
:100AF00001000100010001000100010001000100EE
:100B000001000100010000000100010001000100DE
:100B100001000100010001000100010001000100CD
:100B200001000100010001000000010001000100BE
:100B300001000100010001000100010001000100AD
:100B400001000100000000000000000012036B0023
:100B50006500790062006F006100720064000000AF
:100B6000160371006D006B006200750069006C0077
:100B700064006500720000000403090409026D00AE
:100B8000040100A0FA090400000103010100092189
:100B9000110100012240000705810308000A090431
:100BA00001000103010200092111010001224D0091
:100BB0000705820308000A0904020001030000007F
:100BC0000921110100012236000705830308000AEC
:100BD00009040300010300000009211101000122A2
:100BE00039000705840320000112011001000000F4
:100BF00008EDFE606001000102000105010906A187
:100C000001050719E029E7150025019508750181FF
:100C100002050819012905950575019102950175CF
:100C20000391010507190029F71500250195F875AD
:100C3000018102C005010980A1018502160100267B
:100C400003001A81002A8300751095018100C005F8
:100C50000C0901A1018503160100269C021A01005E
:100C60002A9C02751095018100C005010902A101AD
:100C70000901A1000509190129051500250195059E
:100C80007501810295017503810105010930093162
:100C90001581257F95027508810609381581257F04
:100CA000950175088106050C0A38021581257F9586
:100CB0000175088106C0C005010906A101050719D3
:100CC000E029E71500250195087501810295017558
:100CD00008810105081901290595057501910295FD
:100CE00001750391010507190029FF150026FF0072
:100CF000950675088100C00011241FBECFEFDAE011
:100D0000DEBFCDBF04B603FE27C080917302909171
:100D10007402A0917502B09176028730904BA74083
:100D2000B04BD1F4109273021092740210927502BB
:100D30001092760214BE84B7877F84BF0FB6F894F2
:100D4000A895809160008861809360001092600097
:100D50000FBEE0E0F8E3099511E0A0E0B1E0E0E2C9
:100D6000FAE402C005900D92AE33B107D9F722E044
:100D7000AEE3B1E001C01D92A337B207E1F70E94D4
:100D8000481E0C940E250C94000090E080E008951D
:100D90000895089581E0089581FF03C06E9A7698C2
:100DA00008956E98FCCF81E008950C94CA060E94C5
:100DB000DD102FEF84E39CE0215080409040E1F76C
:100DC00000C000000C94F318FF920F931F93CF9371
:100DD000DF938C01FC01C081D1818091960181114A
:100DE0003FC082818823B9F1CE010E944416F82EBB
:100DF000682FCE010E94EA15BE018F2D0E942B089C
:100E0000EC01B8010E94D506882309F44AC0B80154
:100E1000CE010E943B0A882309F443C0C531F0E7A4
:100E2000DF0718F5C23080E7D80708F04BC0C115BE
:100E3000E0E7DE0789F1C130D047D1F181E080934E
:100E4000400180934101C801DF91CF911F910F9123
:100E5000FF900C94D306CE010E941916F82ECCCF29
:100E6000CE010E944416BE01C9CFCC3380E7D8071B
:100E700009F4ACC0CD33D04709F7F801828188234B
:100E800009F4CBC0109241010E94981890933F0141
:100E900080933E0180E2A7C0F801828181110E9407
:100EA000D70680E0DF91CF911F910F91FF900895B9
:100EB000F80182818823A9F38091330281608093B5
:100EC0003302EFCFF8018281882309F4BCCF0E945E
:100ED000F517811102C00E94DB170E94121890E0E2
:100EE0009093650280936402FE01E350F047809185
:100EF00064028160E231F105C8F4EF57F84F0C94B9
:100F0000BE2493079F07A307A707AB07AF07B30745
:100F1000B707BB07BF07C307C707CB07CF07D30771
:100F2000D707DB07DF078091640282608093640249
:100F3000809164020E9416180E94DD10B2CF809149
:100F400064028460F3CF809164028860EFCF809167
:100F500064028061EBCF809164028062E7CF809170
:100F600064028064E3CF809164028068DFCF809167
:100F700064028460EACF809164028E7FD7CF809133
:100F800064028D7FD3CF809164028B7FCFCF80911D
:100F90006402877FCBCF809164028F7EC7CF809120
:100FA00064028F7DC3CF809164028F7BBFCF80911D
:100FB00064028F77BBCF809164028B7FEACF9091E0
:100FC0006402892F97FB87F98058B0CFF80182819E
:100FD000882361F0109240010E94981890933F017D
:100FE00080933E0182E00E94670E5BCF80914001BA
:100FF00081110FC080913E0190913F010E94A41881
:10100000883C910530F486E20E943C0D86E20E9405
:10101000180E82E00E946E0E44CF80914101811132
:101020000FC080913E0190913F010E94A418883C1E
:10103000910530F487E20E943C0D87E20E94180E71
:1010400080E2E8CF0C948A0A0C948C0A0C94CC06AB
:101050000C9426080895972F70E021E1929F600D6F
:10106000711D1124FB0195E5899FE00DF11D1124EF
:10107000EE0FFF1FE455FF4F859194910895FC01F9
:10108000EE0FFF1FE45BF44F8591949108950E9449
:101090002B080E94BA09811520E4920708F08DC040
:1010A000811540E3940708F0E8C0803E910508F000
:1010B00071C0803C910508F0CCC0883A910580F45D
:1010C000853A910508F0CAC08130910509F46EC0D7
:1010D00020F08430910508F069C090E080E0089528
:1010E0008D3B9105D0F7883A910509F404C1893AFE
:1010F000910509F403C18A3A910509F402C18B3ABA
:10110000910509F401C18C3A910509F400C18B3BAA
:10111000910509F4FFC08C3B910509F4FEC08D3A9E
:10112000910509F4FDC0803B910509F4FCC08E3A9D
:10113000910509F4FBC08F3A910509F4FAC0813B8F
:10114000910509F4F9C0823B910509F4F8C0833B8D
:10115000910509F4F7C0843B910509F4F6C0853B7D
:10116000910509F4F5C0863B910509F4F4C0873B6D
:10117000910509F4F3C0883B910509F4F2C0893B5D
:10118000910509F4F1C08A3B910509F4F0C080E0B3
:1011900094E408958F3F910509F048F4803F91054C
:1011A00008F067C0883E910508F097CF0895811533
:1011B00020E2920708F05FC00895811543E5940787
:1011C00060F5811522E5920708F062C0811541E5BE
:1011D000940708F058C0811520E5920708F450C024
:1011E0009C0154E0369527955A95E1F7922F93701C
:1011F000482F437021E030E002C0220F331F4A9590
:10120000E2F73C68392B86958695837040E2849F8F
:10121000C0011124822B932B0895811545E5940775
:1012200050F4811524E5920708F446C0982F8827CA
:10123000846F906A0895811546E5940708F450C0BC
:101240009C0130569F702115304108F046CF9062C6
:101250000895805C91090E943F080895853A9105A0
:1012600009F443C0863A910509F042C082E890E44F
:101270000895906508959F70EECF9927906C08951A
:101280009F70906A0895982F8827816F906A0895BB
:10129000AC014370552721E030E002C0220F331F1C
:1012A0004A95E2F78695869540E2849FC001112415
:1012B000822B932B9C680895AC014370552721E045
:1012C00030E002C0220F331F4A95E2F786958695DB
:1012D00040E2849FC0011124822B932B9A680895C9
:1012E000982F882788279F71B2CF81E890E40895CE
:1012F00083E890E4089582EE94E4089589EE94E4FE
:1013000008958AEE94E4089585EB94E4089586EBBD
:1013100094E4089583EB94E4089584EB94E40895B1
:1013200087EB94E408958CEC94E408958DEC94E4B8
:10133000089583E895E408958AE895E4089582E99C
:1013400095E4089584E995E4089581E296E408958A
:1013500083E296E4089584E296E4089585E296E4B3
:10136000089586E296E4089587E296E408958AE275
:1013700096E41CCF8238910549F1B0F48133910590
:1013800009F45CC048F48932910509F452C08A32EC
:10139000910509F458C008958533910509F444C0B6
:1013A0008933910599F00895833E910531F138F420
:1013B000803E910591F0823E9105B1F00895863E00
:1013C000910511F1873E910541F108952091640244
:1013D0002370C9F080EE90E008952091640220FF10
:1013E00012C089E390E008952091640222FF0BC0AF
:1013F00024FF2EC090E080E008952091640222FD39
:101400002AC024FDF7CF08952091640223FFFBCF6B
:1014100024FDF0CF87EE90E008952091640223FF31
:10142000F0CF86EE90E008952091640225FD16C06D
:1014300008952091640225FD14C00895209164024E
:1014400026FD12C008952091640226FD10C0089563
:1014500083EE90E0089582EE90E0089589E290E0B6
:10146000089585E390E008958AE290E0089581E38D
:1014700090E0C9CF08950F931F93CF938C01FB0188
:101480008281811106C0C1E08C2FCF911F910F91F5
:101490000895C0914F01C11125C00531104799F73A
:1014A0000E943A0A81E080934F010E94981890931D
:1014B0004E0180934D01109242011092440110920E
:1014C000430110924601109245011092480110927A
:1014D000470110924A011092490110924C0110925A
:1014E0004B01D2CF80914D0190914E010E94A418E2
:1014F000883C910540F680914201E82FF0E0EE0F24
:10150000FF1FED5BFE4F118300838F5F80934201CD
:10151000C0E0BACF0C94C8060C94C90685B78068A1
:1015200085BF85B7806885BFA3E1B1E061E070E069
:101530008D91E82FE295EF70F0E041A18F709B0153
:1015400001C0220F8A95EAF7922F9095942391A3D8
:1015500082A1822B82A381E0A432B80749F7A4E2DA
:10156000B1E061E070E08D91E82FE295EF70F0E07E
:1015700041A18F709B0101C0220F8A95EAF7922F3B
:101580009095942391A382A1822B82A381E0A9321A
:10159000B80749F7E4E6F1E0A0E5B1E088E791E0BB
:1015A00011921192119211921D921D921D921D92F3
:1015B0008E179F07A9F70C9422082F923F924F9203
:1015C0005F926F927F928F929F92AF92BF92CF92D3
:1015D000DF92EF92FF920F931F93CF93DF93CDB7DC
:1015E000DEB72A970FB6F894DEBF0FBECDBF23E15A
:1015F00031E03E832D8318861F82412C512C32010D
:101600004394AD81BE818D91BE83AD83E82FE29579
:10161000EF70F0E091A18F7021E030E002C0220F66
:10162000331F8A95E2F73C832B83822F892B81A37A
:1016300082A1922F9095892382A330EA3A95F1F7FF
:10164000730162010F8004C0CC0CDD1CEE1CFF1C7A
:101650000A94D2F74601570180949094A094B094D4
:1016600080E5282E81E0382EA4E2B1E0BA83A98378
:101670003A86298680E0A985BA854D915D916D9164
:101680007C91A981BA811D91BA83A983212F2295CA
:101690002F7030E0D90190962C9130E01F7002C07D
:1016A000359527951A95E2F78A0120FD79C09B01AF
:1016B0000C291D292E293F29A985BA850D931D9333
:1016C0002D933C931397A985BA850D911D912D916A
:1016D0003C91401751076207730709F081E02985A3
:1016E0003A852C5F3F4F3A872987A981BA81A95251
:1016F000B14009F0C0CF21A1922391A392A13B81D7
:10170000932B92A3882349F041E0409378010E94F3
:10171000981890937A01809379018F81988501962A
:1017200098878F83419709F06CCF80917801882347
:10173000D9F08091790190917A010E94A4180697BE
:1017400098F0E4E6F1E084E691E0D1014D915D91FD
:101750006D917D911D0141935193619371938A170E
:101760009B0799F7109278010E94240881E02A963D
:101770000FB6F894DEBF0FBECDBFDF91CF911F91A2
:101780000F91FF90EF90DF90CF90BF90AF909F9020
:101790008F907F906F905F904F903F902F90089523
:1017A0009B01082119212A213B2186CF94E0899FA2
:1017B000F0011124EC59FE4F608171818281938187
:1017C000089508959093800180937F010895E0919A
:1017D0007F01F0918001309721F00190F081E02DA0
:1017E000099480E00895E0917F01F09180013097A5
:1017F00021F00280F381E02D09940895E0917F01AA
:10180000F0918001309721F00480F581E02D09945A
:10181000089520917D0130917E012817390771F0DC
:1018200090937E0180937D01E0917F01F091800192
:10183000309721F00680F781E02D099408952091DA
:101840007B0130917C012817390771F090937C015E
:1018500080937B01E0917F01F0918001309721F02E
:101860000084F185E02D0994089508950C94350CB9
:101870000E948F180E948E0A0C945F194F925F92FB
:101880006F927F928F929F92AF92BF92DF92EF9270
:10189000FF920F931F93CF93DF93CDB7DEB72A97B5
:1018A0000FB6F894DEBF0FBECDBF0E94DD0A22E85E
:1018B000E22E21E0F22E10E000E0D02E802F0E94D8
:1018C000D60B4B015C01F7014190519061907190F2
:1018D0007F01481459046A047B0409F476C080919E
:1018E000330281FD0E94E10B90E080E048245924FE
:1018F0006A247B24B301A201082E04C07695679563
:10190000579547950A94D2F740FF5AC08E83DF82DD
:10191000412C512C3201439404C0440C551C661CCC
:10192000771C8A95D2F784209520A620B72081E0E5
:1019300089288A288B2809F480E088870E949818D3
:101940008160782F9A8789874E815F8168858A8533
:101950000E94120D000F111F000F111FF801EE570A
:10196000FE4F80819181A281B38184259525A62592
:10197000B72580839183A283B3830E94E21B0E94D8
:10198000E70B909181018917B9F10E94E70B8093D1
:1019900081012A960FB6F894DEBF0FBECDBFDF914E
:1019A000CF911F910F91FF90EF90DF90BF90AF907C
:1019B0009F908F907F906F905F904F900C9428082D
:1019C00001968131910509F095CF0F5F1F4F0530CA
:1019D000110509F072CF8FEF89838A831B820E94E1
:1019E00098188160782F9D838C8349815A816B81FF
:1019F0008D810E94120DC1CF2A960FB6F894DEBFDA
:101A00000FBECDBFDF91CF911F910F91FF90EF904F
:101A1000DF90BF90AF909F908F907F906F905F907E
:101A20004F900895CF93DF93CDB7DEB72B970FB6C6
:101A3000F894DEBF0FBECDBF4F83588769877A8782
:101A40008B871E821D8285E0FE013796DE0111968E
:101A500001900D928A95E1F749815A816B817C81D1
:101A60008D819E812B960FB6F894DEBF0FBECDBF41
:101A7000DF91CF910C948F13882309F4D8C082385A
:101A800071F40E94E70B81FDD2C089E30E94E41645
:101A90000E94AC1789E30E9421170C94AC1783387D
:101AA00059F40E94E70B80FDC2C083E50E94E41652
:101AB0000E94AC1783E5EFCF843859F40E94E70BFE
:101AC00082FDB5C087E40E94E4160E94AC1787E44B
:101AD000E2CF9CEF980F913A18F40E94E416DDCF04
:101AE00090E2980F983050F4877091E001C0990F00
:101AF0008A95EAF7892F0E946317CFCF9BE5980F4D
:101B0000933070F4853A31F0863A39F083E890E00A
:101B10000C94090C81E890E0FBCF82E890E0F8CFCC
:101B200098E5980F953108F082C0883A09F440C0D2
:101B3000893A09F440C08A3A09F440C08B3A09F462
:101B400040C08C3A09F440C08B3B09F440C08C3B48
:101B500009F440C08D3A09F440C0803B09F440C00C
:101B60008E3A09F440C08F3A09F440C0813B09F431
:101B700040C0823B09F440C0833B09F440C0843B31
:101B800009F440C0853B09F440C0863B09F440C0DD
:101B9000873B09F440C0883B09F440C0893B09F405
:101BA00040C08A3B09F440C090E080E00C941F0CD8
:101BB00082EE90E0FBCF89EE90E0F8CF8AEE90E0E5
:101BC000F5CF85EB90E0F2CF86EB90E0EFCF83EBA3
:101BD00090E0ECCF84EB90E0E9CF87EB90E0E6CFAC
:101BE0008CEC90E0E3CF8DEC90E0E0CF83E891E0E7
:101BF000DDCF8AE891E0DACF82E991E0D7CF84E9BE
:101C000091E0D4CF81E292E0D1CF83E292E0CECFD7
:101C100084E292E0CBCF85E292E0C8CF86E292E008
:101C2000C5CF87E292E0C2CF8AE292E0BFCF0895AB
:101C3000882309F44BC0823871F40E94E70B81FFBE
:101C400045C089E30E94E4160E94AC1789E30E9414
:101C500021170C94AC17833859F40E94E70B80FFCE
:101C600035C083E50E94E4160E94AC1783E5EFCFF0
:101C7000843859F40E94E70B82FF28C087E40E9451
:101C8000E4160E94AC1787E4E2CF9CEF980F913ADC
:101C9000F0F290E2980F983050F4877091E001C014
:101CA000990F8A95EAF7892F0E946917D2CF9BE591
:101CB000980F933020F490E080E00C94090C885A3F
:101CC000853120F490E080E00C941F0C0895882367
:101CD00021F00E9463170C94AC170895882321F01B
:101CE0000E9469170C94AC1708958F929F92AF923F
:101CF000BF92DF92EF92FF920F931F93CF93DF93E8
:101D00007C01D62FC72FFC01058102950F7012812F
:101D100011110E9482170E94DD16D82E882371F0BF
:101D2000112321F180E28D0F883000F182E00E94C2
:101D3000C7160E94DD1691E0D82ED926EC2FE29529
:101D4000EF70F0E0EA55F14F0C94BE24B80EB80ED7
:101D5000080F080F4A0F660FE50EE50E710FE50E2E
:101D6000091009107C10E50EE50E8510D12CE6CF88
:101D70000C2F0F70C07F11F00295007F1123A9F086
:101D8000002359F080E28D0F883010F0D11109C086
:101D9000802F0E9463170E94AC178D2F0E943C0D6C
:101DA00014C0802F0E947417F6CF8D2F0E94180E3A
:101DB000002359F080E28D0F883010F0D11124C03B
:101DC000802F0E9469170E94AC17DD2009F4A4C17E
:101DD0000E94BA1680FDA0C1F70112820E94B416BB
:101DE0000E942E15C7010E9498100E94B416DF9120
:101DF000CF911F910F91FF90EF90DF90BF90AF9028
:101E00009F908F900C944F15802F0E947A17DBCFF4
:101E1000FC2FFF70BF2EC07FC03219F0B29480EF4C
:101E2000B822DD2369F0D13029F1112369F10023B3
:101E300059F0F701858180FFB0CF8F70858304C092
:101E4000112361F0011104C08B2D0E94670EBDCFDC
:101E50008B2D0130D1F70E949617B7CF011106C024
:101E60000E9499178B2D0E946E0EAFCF013009F49E
:101E7000ACCFF6CF112321F0063008F0A6CFE4CF87
:101E8000053008F0A2CFEECF002361F38D2F0E9422
:101E9000180E9BCF8C2F86958695837069F08130C4
:101EA00009F093CF8D2F9C2F9370111102C090E0F9
:101EB00080E00E941F0C89CF8D2F9C2F93701111F1
:101EC00002C090E080E00E94090C7FCF8D2F11238B
:101ED00029F00E94EB1A0E94D71B77CF0E94531B58
:101EE000FACF8C2F837009F047C011116ECF2D2FC0
:101EF000229526952770220F220F6D2F6F70862E48
:101F0000912CB12CA12C022E04C0880C991CAA1C67
:101F1000BB1C0A94D2F760E070E0CB01D4FF0FC085
:101F20006FE070E080E090E004C0660F771F881FCC
:101F3000991F2A95D2F76095709580959095C695D2
:101F4000C695C370C23051F080F4682979298A2976
:101F50009B29C13071F00E94D71437CF68297929A5
:101F60008A299B290E94F31430CF0E94D714C501FF
:101F7000B4010E94BB1429CF8695112311F08C2F38
:101F80008170882309F421CF2D2F22952695277063
:101F9000220F220F6D2F6F70862E912CB12CA12C49
:101FA000022E04C0880C991CAA1CBB1C0A94D2F7F0
:101FB00060E070E0CB01D4FF0FC06FE070E080E024
:101FC00090E004C0660F771F881F991F2A95D2F7EB
:101FD0006095709580959095C695C695C370C230F2
:101FE00051F080F4682979298A299B29C13071F040
:101FF0000E94B115EACE682979298A299B290E9475
:10200000CD15E3CE0E94B115C501B4010E9495150E
:10201000DCCEE0E2ED0FE53108F062C0F0E0ED5E0D
:10202000FF4E0C94BE2428102810281028102810C9
:1020300028102810281028102810281028102810E0
:10204000281028102810351043104A1051105B102A
:10205000DF708C2F8F71112321F00E942E158D2F90
:10206000F4CE0E944F158D2FFECE112341F0053086
:1020700008F0ABCE8C2F8F710E947415A6CE06305F
:1020800008F0A3CEF7CF8C2F8F71112339F00E9467
:102090002E159BCE8C2F8F711123C9F30E944F15E3
:1020A00094CE112329F08C2F8F710E9419158DCE9B
:1020B0000E940F158ACE112349F0CF718C2F0E94F8
:1020C0002E1563E08C2F0E94BE167FCE81E00E9409
:1020D000C716023008F479CE82E00E94C71675CE8A
:1020E000112329F0011159CE8C2F8F71D0CF0111FE
:1020F000CDCE8C2F8F71D2CF4C2F4F706D2FC7014B
:102100000E94C5060E94381460CE4C2F4F706D2F70
:10211000C7010E942A0859CEDF91CF911F910F91DC
:10212000FF90EF90DF90BF90AF909F908F900895B9
:102130000F931F93CF93DF93EC01988189812B81BB
:102140003C81232B39F08F3F19F481E09F3F19F038
:1021500080E001C081E080FD17C0CE010E94E4064E
:10216000882391F0688179818A810E9490168C0180
:102170000E94E9150E94B014B801CE01DF91CF9101
:102180001F910F910C94750EDF91CF911F910F91BC
:1021900008950E9482170E9493170E9455170E946B
:1021A000AC170E94841C0E94D71B90E080E00E9424
:1021B000090C90E080E00C941F0C0E9471170C94A5
:1021C000C9100E948616E92FE295EF70E250EE30BA
:1021D000E0F4F0E0E251FF4E0C94BE24FC10FC1041
:1021E000051105110711051105110511FC10FC1051
:1021F0000C11051105110C11803F19F020F4803EDF
:1022000020F481E00895843FE1F380E00895803E6A
:10221000C0F3813FD1F7F5CF93FB882780F908956C
:10222000CF93DF9300D000D01F92CDB7DEB70F90D1
:102230000F900F900F900F90DF91CF910895CF9353
:10224000DF9300D000D000D0CDB7DEB726960FB612
:10225000F894DEBF0FBECDBFDF91CF9108951F93DD
:10226000CF93DF93C091970116E0809198018C1372
:1022700004C0DF91CF911F910895D0E01C9FF00121
:102280001D9FF00D1124E756FE4F40815181628160
:102290007381848195810E941F112196C770E5CFBB
:1022A0004091C9015091CA016091CB017091CC015C
:1022B0008091CD019091CE010C941F111F93CF936B
:1022C000DF938091CE01807FD1F48091CB01882370
:1022D000B1F080919701D0919801B091C901C0915E
:1022E000CA014091CC015091CD01A1E0BF3F09F05E
:1022F000A0E0BA016095709516E0D81304C0DF9194
:10230000CF911F91089521E04115510521F02A2F09
:10231000CF3F09F020E090E020FD38C0189FF00189
:10232000199FF00D1124E756FE4F21812C132EC06A
:1023300020812B132BC02281211128C023813481BD
:102340002417350700F1241B350B283C3105F0F428
:102350002091CE012F7020612093CE0126E0289F8E
:10236000F001299FF00D1124E256FE4F80818F70FD
:102370008061808389EC91E00E949810DF91CF9179
:102380001F910C942F11260F371FDFCF01968770F6
:10239000B4CFAF92BF92CF92DF92EF92FF920F93A2
:1023A0001F93CF93DF93CDB7DEB761970FB6F89445
:1023B000DEBF0FBECDBF8C0185E0F801DE011D96AA
:1023C00001900D928A95E1F7D8014C9111965C919C
:1023D00011971296EC903091C9016091CA018091D9
:1023E000CC019091CD0121E0009731F06F3F19F4BD
:1023F00021E03F3F09F020E0B22FB170BB2E20FD5D
:1024000080C1F801C380D480A090CB01AA2009F438
:1024100027C1C816D906D0F1D601A81BB90BCD012A
:10242000FF24F394883C910508F0F12C8091CE01B3
:10243000982F907FFF2009F4CAC0911187C0FE2C0D
:10244000651329C0341327C0E11025C08F70806147
:102450008093CE010E94501189EC91E00E94981067
:102460008091CE01F80185838F2D61960FB6F89487
:10247000DEBF0FBECDBFDF91CF911F910F91FF90B7
:10248000EF90DF90CF90BF90AF900895809590959A
:102490008C0D9D1DC5CF81E0CD2831F05F3F19F433
:1024A00081E04F3F09F080E080FD24C081E08E256F
:1024B000F82FF170DF2E80FF3FC0809197012091AF
:1024C000980136E0821318C04D875E878D859E8502
:1024D0000E948616292F22952F70223008F1243071
:1024E00030F59F7009F1D80115969C91907FE1F429
:1024F000FB2CBACF80E0DCCF90E0389FF001399F11
:10250000F00D1124E756FE4F6181561306C060811D
:10251000461303C062816E110FC001968770D2CF3F
:102520009F7011F0882321F3805E883008F3C80182
:102530000E949810BD2CDCCFEE2009F495CF80913D
:10254000CE0181608093CE01F12C8ECF651312C035
:10255000341310C0E1100EC0F8018583C8010E9439
:10256000981086E0F801A9ECB1E001900D928A95EF
:10257000E1F741C04D875E878D859E850E94E11001
:10258000882309F4C8C0EE2009F4C5C08091CE01AB
:10259000803270F02091C9013091CA0138872F83B1
:1025A0001986DB86CA868C87CE0107960E94981012
:1025B00086E0F801A9ECB1E001900D928A95E1F76F
:1025C0000E945E110E945011FF24F3944DCF91118F
:1025D00015C07C2DD98AC88A6E2D89890E94101158
:1025E00089EC91E00E94981086E0E9ECF1E0DF01CF
:1025F0001D928A95E9F70E94501136CF651312C0DB
:10260000341310C0E1100EC0F8018583C8010E9488
:102610009810E9ECF1E086E0DF011D928A95E9F778
:10262000FA2C22CF4D875E878D859E850E94E11012
:10263000882309F470C0EE2009F46DC08091CE01AA
:10264000803208F4B5CF2091C9013091CA013A8394
:1026500029831B82DD82CC828E83CE010196A6CF98
:10266000C816D90638F1F601E81BF90BCF01F12C99
:10267000883C910508F03DC0FE2CEE2009F44BC0CB
:10268000651326C0341324C08091CE0180FD17C08D
:10269000982F907FA1F0D80115968C931597903FB5
:1026A00009F45CCF982F907F905F8F70892B1596DF
:1026B0008C9354CF809590958C0D9D1DD8CF86E03E
:1026C000F801A9ECB1E001900D928A95E1F7CCCE2A
:1026D0004D875E878D859E850E94E110811168CFB0
:1026E0008091CE0181608093CE01C8010E94981034
:1026F000BBCE7C2DD98AC88A6E2D89890E94101183
:1027000073CFEE2041F04D875E878D859E850E94B8
:10271000E11081114DCFC8010E94981055CF1F9331
:10272000CF93DF93CDB7DEB72C970FB6F894DEBF0B
:102730000FBECDBF4F83588769877A878B879C8769
:10274000CE0107960E94C911882309F442C09F81D7
:1027500088852A853B85232B39F08F3F19F481E04A
:102760009F3F19F080E001C081E080FD08C04F81EB
:10277000588569857A858B859C850E941F1116E096
:102780008091970190919801891709F467C0819F02
:10279000C001112487569E4F0E94C911882309F455
:1027A0005DC0E09197011E9FF0011124E756FE4F96
:1027B0004081518162817381848195810E941F11C2
:1027C0008091970190E001968770992780939701F7
:1027D000D7CF86E0FE013796DE01119601900D926B
:1027E0008A95E1F79F8188852A853B85232B39F0DF
:1027F0008F3F19F481E09F3F19F080E001C081E034
:1028000080FDBDCF2091980130E0C901019687700D
:102810009927409197014817190699F096E0929FE1
:10282000D001939FB00D1124A756BE4FFE013196E3
:1028300001900D929A95E1F7809398010E942F11D3
:102840009ECF0E94DD10109298011092970186E0B1
:10285000E9ECF1E0DF011D928A95E9F72C960FB6BD
:10286000F894DEBF0FBECDBFDF91CF911F910895C9
:10287000EF92FF920F931F93CF93DF938C01892BDD
:1028800081F0F12CEE24E394E8012196F801849183
:10289000843770F4843008F05FC08130B1F082304A
:1028A000A1F1DF91CF911F910F91FF90EF900895CB
:1028B000853709F44CC008F43DC09CE7980F903769
:1028C00080F78F770E94180E49C00E5F1F4FFE01E0
:1028D000849190E2980F983060F48770FE2D01C0CB
:1028E000FF0F8A95EAF78F2F0E9485170E94AC1779
:1028F00002C00E943C0D8F2D815030F2EFE9FFE0C5
:102900003197F1F700C00000F7CF0E5F1F4FFE01B7
:10291000849190E2980F983050F48770FE2D01C09A
:10292000FF0F8A95EAF78F2F0E948B17DFCF0E9447
:10293000180EE1CF0E5F1F4FFE01C491C150D8F2B7
:102940008FE99FE00197F1F700C00000F7CF0E5F1D
:102950001F4FFE01F490CFCF0E943C0D8E01CBCFD4
:10296000089560930A0270930B0280930C02909377
:102970000D020C94C9100F931F9300910A0210913D
:102980000B0220910C0230910D02DC01CB01802B57
:10299000912BA22BB32B80930A0290930B02A0934E
:1029A0000C02B0930D021F910F910C94C9100F935C
:1029B0001F9300910A0210910B0220910C0230919A
:1029C0000D02DC01CB0180239123A223B32380934A
:1029D0000A0290930B02A0930C02B0930D021F9178
:1029E0000F910C94C9100F931F9300910A0210913C
:1029F0000B0220910C0230910D02DC01CB018027EB
:102A00009127A227B32780930A0290930B02A093E9
:102A10000C02B0930D021F910F910C94C9101092EB
:102A200006021092070210920802109209020C94FA
:102A3000C91041E050E060E070E004C0440F551F51
:102A4000661F771F8A95D2F74093060250930702BC
:102A500060930802709309020C94C91041E050E0A1
:102A600060E070E004C0440F551F661F771F8A9511
:102A7000D2F78091060290910702A0910802B091CE
:102A80000902842B952BA62BB72B809306029093DB
:102A90000702A0930802B09309020C94C91041E008
:102AA00050E060E070E004C0440F551F661F771FC0
:102AB0008A95D2F740955095609570958091060261
:102AC00090910702A0910802B091090284239523F6
:102AD000A623B7238093060290930702A0930802CF
:102AE000B09309020C94C91041E050E060E070E03E
:102AF00004C0440F551F661F771F8A95D2F7809137
:102B0000060290910702A0910802B0910902842761
:102B10009527A627B7278093060290930702A093D4
:102B20000802B09309020C94C9100F931F930091EF
:102B30000602109107022091080230910902DC017F
:102B4000CB01802B912BA22BB32B80930602909369
:102B50000702A0930802B09309021F910F910C94F1
:102B6000C9100F931F930091060210910702209144
:102B7000080230910902DC01CB0180239123A223BA
:102B8000B3238093060290930702A0930802B093A8
:102B900009021F910F910C94C9100F931F9300917C
:102BA0000602109107022091080230910902DC010F
:102BB000CB0180279127A227B32780930602909309
:102BC0000702A0930802B09309021F910F910C9481
:102BD000C910089521E1929F800D1124982F9770BC
:102BE00071E001C0770F9A95EAF7869586958695EC
:102BF00025E0829FC001112450E040E0A62FB0E004
:102C0000FC01E40FF51FE153FE4F60819D01042E8E
:102C100002C0369527950A94E2F721702195262760
:102C20002723262720834F5F5F4F4530510541F70B
:102C3000089521E1929F800D1124982F9770869519
:102C40008695869525E0829FA001112470E060E0C2
:102C500080E0FA01E60FF71FE153FE4F208130E0DC
:102C6000092E02C0369527950A94E2F72170332782
:102C7000062E01C0220F0A94EAF7822B6F5F7F4F66
:102C80006530710531F70895BF92CF92DF92EF92D0
:102C9000FF920F931F93CF93DF938C01C090060296
:102CA000D0900702E0900802F090090280910A0299
:102CB00090910B02A0910C02B0910D02C82AD92A62
:102CC000EA2AFB2ACFE1D0E0BC2ED701C6010C2EA8
:102CD00004C0B695A795979587950A94D2F780FD7D
:102CE0000EC0219788F7B12C8B2DDF91CF911F91CA
:102CF0000F91FF90EF90DF90CF90BF900895B801B3
:102D00008C2F0E944708019761F3EECFCF93DF939A
:102D1000EC010E944416BE01DF91CF910C9447084C
:102D20001F93CF93DF93EB0190919601992331F09C
:102D3000CB01DF91CF911F910C948616882379F0F7
:102D4000CB010E944416182F682FCE010E94EA156D
:102D5000BE01812FDF91CF911F910C944708CB01C9
:102D60000E941916182FF4CF80910E028595859533
:102D70008595089580910E028770089598E0899F47
:102D800090011124622B60930E020C942E159091E9
:102D90000E028095892380930E02282F277061F4FC
:102DA000282F082E000C330B9217130629F0859557
:102DB000859585950C944F15089590910E02977006
:102DC00081E009F480E00895909112019923E1F0E7
:102DD0009091640297FF18C0E82FE695E695E69576
:102DE000EF3139F12091000130910101E20FF32F11
:102DF000F11D877021E030E001C0220F8A95EAF7CB
:102E00008181822B818308952091000130910101FD
:102E1000F90132969FEF40E05191851751F09F3FA5
:102E200019F4511101C0942F4F5F4E31A9F79F3F04
:102E300009F40895290F311D97FD3A95F901828310
:102E40000895909112019923F1F09091640297FFF7
:102E50001AC0E82FE695E695E695EF3129F1209125
:102E6000000130910101E20FF32FF11D282F27708F
:102E700081E090E001C0880F2A95EAF78095918162
:102E80008923818308952091000130910101F90186
:102E90003296205E3F4F9191891303C0DF01119755
:102EA0001C92E217F307B9F7089581E090E0E091F2
:102EB0000001F0910101E80FF91F108201968032A4
:102EC0009105A9F7089590913202892B80933202DF
:102ED0000895982F90958091320289238093320231
:102EE000089510923202089590913102892B8093B7
:102EF00031020895982F9095809131028923809313
:102F00003102089510923102089590913002892B78
:102F1000809330020895982F9095809130028923F4
:102F200080933002089510923002089580930F022A
:102F3000089510920F02089520910001309101012F
:102F4000F9013196205E3F4F80E0919191118F5FA2
:102F5000E217F307D1F70895E0910001F091010124
:102F6000809132028083E0910001F0910101808123
:102F700090913102892B8083E0910001F091010151
:102F8000808190913002892B808390910F02992348
:102F900061F0E0910001F09101018081892B808333
:102FA0000E949C17811110920F0280910001909154
:102FB00001010C94F30B6DEE7EEF90E080E00E9437
:102FC000F82460E082E090E00E94E62460E083E084
:102FD00090E00E94E62460E084E090E00E94E62415
:102FE00060E085E090E00C94E62490E080E00E94B0
:102FF000E02421E08D3E9E4F09F020E0822F0895CD
:1030000082E090E00C94D824682F82E090E00C9449
:10301000E62483E090E00C94D824682F83E090E0CD
:103020000C94E62484E090E00C94D824682F84E08B
:1030300090E00C94E62480916A02843039F1109279
:10304000340288E190E020E40FB6F894A8958093CC
:1030500060000FBE2093600080E00E94280883B7C4
:10306000817F846083BF83B7816083BF78948895B4
:1030700083B78E7F83BF0FB6F894A89580916000C8
:10308000886180936000109260000FBE08950895DB
:103090000895CF930E9447180E94DD0A0E944818A5
:1030A000C0E08C2F0E94D60B672B682B692B31F464
:1030B000CF5FC530B1F780E0CF91089581E0FCCFBC
:1030C0000E94DD100E94E70B0C9428081F920F92BB
:1030D0000FB60F9211248F939F93AF93BF9380915C
:1030E0003402811113C08091600290916102A0911D
:1030F0006202B09163024196A11DB11D80936002EE
:1031000090936102A0936202B0936302BF91AF916A
:103110009F918F910F900FBE0F901F90189582E096
:1031200084BD93E095BD9AEF97BD80936E0008959E
:103130002FB7F8948091600290916102A091620291
:10314000B09163022FBF0895CF92DF92EF92FF926A
:103150000F931F932FB7F894409160025091610232
:1031600060916202709163022FBF6A017B01EE24BD
:10317000FF248C0130E020E0C016D106E206F30601
:1031800050F0481B590BCA011F910F91FF90EF900F
:10319000DF90CF90089541505109F3CF1F920F92C5
:1031A0000FB60F9211248F939F93AF93BF9380918B
:1031B000600290916102A0916202B0916302019657
:1031C000A11DB11D8093600290936102A0936202E1
:1031D000B0936302BF91AF919F918F910F900FBEFB
:1031E0000F901F9018950E947E20F8942FEF87EA89
:1031F00091E6215080409040E1F700C0000087E058
:1032000090EBDC018093730290937402A09375029B
:10321000B093760288E19CE00FB6F894A89580936D
:1032200060000FBE90936000FFCF8F929F92AF928D
:10323000BF92EF92FF920F931F93CF93C0E0E82EBF
:10324000F12C8C2F0E94D60B4B015C0110E000E0AA
:10325000D501C401002E04C0B695A7959795879512
:103260000A94D2F780FD13C00F5F1F4F0131110583
:1032700079F7CF5FC53029F780E0CF911F910F918B
:10328000FF90EF90BF90AF909F908F900895602F28
:103290007C2F80E00E942B08E816F90629F781E0D0
:1032A000ECCFCF93C82F8CE20E941519882321F010
:1032B0008C2FCF910C94151980E0CF910895CF9366
:1032C0000E94F517811102C00E94DB17C5E608C0F5
:1032D0000E94DD0A8FE39CE90197F1F700C000002E
:1032E000C150B1F789E20E9451198111EFC08AE201
:1032F0000E94511981110E94DB1785E00E9451192B
:1033000081110E94F3180E9400188093330287E015
:103310000E945119882371F08BE10E945119882372
:1033200009F4B1C090913302892F8D7F91FF8260A3
:1033300080933302809133020E9404180E94121875
:1033400090E0909365028093640280EE0E94511990
:10335000882341F090916402892F8E7F90FF8160D5
:103360008093640289E30E945119882341F090916F
:103370006402892F8D7F91FF82608093640282EEC8
:103380000E945119882341F090916402892F8B7F0C
:1033900092FF84608093640286EE0E945119882314
:1033A00041F090916402892F877F93FF886080931A
:1033B000640283EE0E945119882341F090916402C7
:1033C000892F8F7E94FF80618093640285E30E9441
:1033D0005119882341F090916402892F8F7D95FFC8
:1033E00080628093640281E30E945119882341F036
:1033F00090916402892F8F7B96FF80648093640292
:1034000081E10E945119882341F090916402892F33
:1034100097FB87F9805880936402809164020E9430
:10342000161887E20E945119C82F8EE10E94511987
:103430008111C2608FE10E9451198111C46080E244
:103440000E9451198111C86081E20E9451198111B5
:10345000C06182E20E9451198111C06283E20E9420
:1034600051198111C06484E20E945119882341F1ED
:10347000C0688C2F0E940D186C2F70E090E080E0E7
:10348000CF910C94B1148EE00E945119882339F029
:1034900090913302892F8B7F92FF846049CF80E126
:1034A0000E94511990913302882329F0892F877F38
:1034B00093FF88603DCF892F8E7F90FF816038CF4A
:1034C000C111D7CF0E940918682FD7CFCF91089587
:1034D0008091370280FF12C06091050185E0689FEE
:1034E000B0011124759567957595679560387105DC
:1034F000A8F561157105A1F1862F089581FF09C016
:103500006091050185E0689FB0011124759567956C
:10351000EDCF82FF07C06091050185E0689FB00193
:103520001124E4CF209138022223A9F090910401C4
:103530006091050185E0689FB00111242917B0F65C
:10354000269FA001279F500D1124692F70E0CA010A
:103550000E94AA24CBCF65E070E0CECF8FE708951C
:1035600081E008958091370280FF0CC060910301D3
:1035700070E075956795759567956115710549F1C9
:10358000862F089581FF06C06091030170E0759554
:103590006795F3CF6091030182FD0BC090913802D3
:1035A0009923A1F06091020180910301961738F0F0
:1035B000682F70E06038710500F38FE70895899FE8
:1035C000C001112470E00E94AA24F4CF61E070E0F1
:1035D000D7CF81E00895803F31F40E94681A819529
:1035E00080933B020895813F19F40E94681AF8CF36
:1035F000823F31F40E94681A819580933A020895BF
:10360000833F19F40E94681AF8CF893F29F40E9479
:10361000B21A80933C0208958A3F21F40E94B21AA4
:103620008195F7CF8B3F31F40E94B21A8195809338
:103630003D0208958C3F19F40E94B21AF8CF843FDE
:1036400031F4809139028160809339020895853F79
:1036500021F4809139028260F7CF863F21F4809176
:1036600039028460F1CF873F21F48091390288606C
:10367000EBCF883F21F4809139028061E5CF8D3F07
:1036800031F48091370281608093370208958E3F34
:1036900021F4809137028260F7CF8F3FB9F7809194
:1036A00037028460F1CF803FC1F480913B0287FDF7
:1036B00010923B0280913A0281110EC080913B0230
:1036C00081110AC080913C02811106C080913D02A7
:1036D000811102C0109238020895813F29F480912F
:1036E0003B0218162CF3E6CF90913A02823F29F460
:1036F00097FFE0CF10923A02DDCF833F19F41916FD
:10370000CCF3D8CF893F39F480913C02181694F657
:1037100010923C02CFCF8A3F29F480913C0287FF70
:10372000C9CFF6CF8B3F39F480913D0287FFC2CFDE
:1037300010923D02BFCF8C3F29F480913D021816B4
:10374000BCF3B8CF843F31F4809139028E7F8093EF
:103750003902B0CF853F21F4809139028D7FF7CFB8
:10376000863F21F4809139028B7FF1CF873F21F48E
:1037700080913902877FEBCF883F21F48091390215
:103780008F7EE5CF8D3F31F4809137028E7F80931D
:10379000370290CF8E3F21F4809137028D7FF7CF93
:1037A0008F3F09F087CF809137028B7FF0CF89E37D
:1037B00092E00E94FE0B0E9498189093360280932C
:1037C000350208951F93CF93DF9380913502909136
:1037D00036020E94A418AC01909138022091060193
:1037E00030E0911106C0209107018AE0289F9001E6
:1037F00011244217530780F080913A02C0913B0296
:1038000010913C02D0913D0281110AC0C11178C0D3
:10381000111176C0D11174C0DF91CF911F9108951D
:103820009F3F19F09F5F90933802181624F40E946E
:10383000681A80933A0280913A0287FF05C00E947D
:10384000681A819580933A021C1624F40E94681A23
:1038500080933B0280913B0287FF05C00E94681A5B
:10386000819580933B0260913A02662331F1C091C9
:103870003B02CC2311F1062E000C770B880B990B21
:103880000E94B12323E333E343E35FE30E94152463
:103890000E94792360933A026C2FCC0F770B880B30
:1038A000990B0E94B12323E333E343E35FE30E94D8
:1038B00015240E94792360933B02111624F40E9480
:1038C000B21A80933C0280913C0287FF05C00E949F
:1038D000B21A819580933C021D1624F40E94B21AFC
:1038E00080933D0280913D0287FF05C00E94B21A7D
:1038F000819580933D02DF91CF911F910C94D71B4E
:103900009F3F09F08FCFA0CF85E0E9E3F2E0DF0130
:103910001D928A95E9F710923802109237020895A5
:1039200080915E020895CF93DF9300D01F92CDB7B0
:10393000DEB79C0180916A02843019F593E0998387
:103940003B832A839093E9008FEF9091E8008150A8
:1039500095FD06C095ED9A95F1F700008111F5CF20
:103960008091E80085FF0DC050E040E063E070E02A
:10397000CE0101960E94EE1E8091E8008E77809322
:10398000E8000F900F900F90DF91CF910895CF93A3
:10399000DF9300D01F92CDB7DEB720916A022430AA
:1039A00031F522E02983805891099B838A8383E043
:1039B0008093E9008FEF9091E800815095FD06C05B
:1039C00095ED9A95F1F700008111F5CF8091E8000F
:1039D00085FF0DC050E040E063E070E0CE0101964D
:1039E0000E94EE1E8091E8008E778093E8000F9091
:1039F0000F900F90DF91CF9108959C0180916A0202
:103A00008430F9F482E08093E9009FEF8091E80030
:103A1000915085FD06C085ED8A95F1F70000911162
:103A2000F5CF8091E80085FF0CC050E040E065E0F4
:103A300070E0C9010E94EE1E8091E8008E778093AD
:103A4000E8000895CF93DF93EC0180916A028430FF
:103A5000F1F4909112019923E9F09091640297FF9B
:103A600019C08093E9008FEF9091E800815095FD97
:103A700006C095E19A95F1F700008111F5CF80918C
:103A8000E80050E040E060E270E085FD1AC0DF91A0
:103A9000CF91089581E08093E9008FEF9091E80045
:103AA000815095FD06C095ED9A95F1F700008111C2
:103AB000F5CF8091E80085FFEACF50E040E068E074
:103AC00070E0CE010E94EE1E8091E8008E77809318
:103AD000E80080E2FE01AEE3B2E001900D928A952B
:103AE000E1F7D5CF80916902811109C00E947E2043
:103AF0000E94DB208091E20084608093E2000895C0
:103B0000109269020895089508950C94601842E097
:103B100061EC81E00E94FC1F42E061EC82E00E94C7
:103B2000FC1F42E061EC83E00E94FC1F42E261EC7A
:103B300084E00C94FC1F80916C02833009F455C022
:103B400030F4813071F1823009F491C008958A30E7
:103B500009F47DC08B3009F463C0893009F044C09A
:103B600080916B02813209F03FC080916F02909189
:103B70007002009711F00397B9F58091E800877FF4
:103B80008093E8008091E80082FF2AC08091F100D4
:103B900080935E028091E8008B778093E8000C941C
:103BA000302080916B02813AF9F48091E800877FA0
:103BB0008093E80080916F0290917002892B61F4EC
:103BC00060E28EE392E070E00E943D1F8091E80089
:103BD0008B778093E800089560E090E080E0F3CF79
:103BE00080916A028111CECF089580916B02813A53
:103BF000D9F780916F0290917002892BA9F780917B
:103C0000E800877F8093E8008091E80080FFFCCF88
:103C1000809112018093F1008091E8008E77BDCFF2
:103C200080916B02813201F780916F029091700256
:103C3000892BD1F68091E800877F8093E8000E946D
:103C4000302080916D02809312010C94DD108091E0
:103C50006B02813249F68091E800877F8093E8000B
:103C60000E94302080916E0280935F0208958091BF
:103C70006B02813A09F0B8CF8091E800877F80938A
:103C8000E8008091E80080FFFCCF80915F02C2CF06
:103C900084B7877F84BF0FB6F894A89580916000A1
:103CA000886180936000109260000FBE80E880936E
:103CB0006100109261000E94360C0E947E200E94DA
:103CC000DB208091E20084608093E20078940E947F
:103CD0005D230E94380C88E091E00E94E20B809105
:103CE0006A02853019F00E943E0CF9CF0E941B1821
:103CF00080916802882399F30E944918882379F3F8
:103D00000E94D81EECCF292F33272330310579F1BB
:103D100058F421303105F1F02230310519F190E0ED
:103D200080E030E020E01AC02132310599F12232E2
:103D30003105A9F7643098F770E0FB01EE0FFF1F23
:103D4000E35DFE4F20813181675D7E4FFB01808105
:103D500090E004C082E190E029EE3BE0FA0131837B
:103D6000208308958DE690E02CE73BE0F7CF99277C
:103D70008130910561F028F0029789F6ECE4FBE0D0
:103D800002C0E8E7FBE0849190E09F01E7CFE0E626
:103D9000FBE0F9CF643008F0C2CFE62FF0E0EE0F81
:103DA000FF1FEB5CFE4F2081318189E090E0D6CF90
:103DB00080E189BD82E189BD09B400FEFDCF80911B
:103DC000D8008F7D8093D8008091E000826080933E
:103DD000E0008091E00081FDFCCF0895AF92BF929A
:103DE000CF92DF92FF920F931F93CF93DF936C01DB
:103DF000EB018A010E944F20F82E811123C001158A
:103E0000110539F0F80180819181C81BD90BC80ECA
:103E1000D91EB12CA12C2097A9F08091E80085FD36
:103E200022C08091E8008E778093E800011511058B
:103E3000A1F0F80180819181A80EB91EB182A08203
:103E400085E0F82E8F2DDF91CF911F910F91FF907C
:103E5000DF90CF90BF90AF9008950E944F208823AD
:103E6000D1F2F82EEFCFF60181916F018093F1002E
:103E70002197FFEFAF1ABF0ACECFFC0180917102EC
:103E80009091720286179707A0F06115710529F4C9
:103E90009091E8009E779093E80090E0611571059D
:103EA00051F4911108C08091E80082FF35C080E094
:103EB0000895BC01F2CF80916A028823C9F1853050
:103EC000C9F18091E80083FD31C08091E80082FD56
:103ED000EACF8091E80080FFE1CF2091F30080914C
:103EE000F200322F282F6115710519F028303105A5
:103EF00058F091E02830310509F090E02091E80079
:103F00002E772093E800CACF81918093F100615011
:103F100071092F5F3F4FE7CF80916A02882341F0FC
:103F2000853041F08091E80083FFBDCF81E00895A6
:103F300082E0089583E00895FC01809171029091E0
:103F4000720286179707A0F06115710529F4809118
:103F5000E8008E778093E80090E06115710551F4D8
:103F6000911108C08091E80082FF36C080E008957A
:103F7000BC01F2CF80916A028823D1F18530D1F162
:103F80008091E80083FD32C08091E80082FDEACF95
:103F90008091E80080FFE1CF2091F3008091F20052
:103FA000322F282F6115710519F02830310558F08E
:103FB00091E02830310509F090E08091E8008E779B
:103FC0008093E800CACF84918093F10031966150CC
:103FD00071092F5F3F4FE6CF80916A02882341F03D
:103FE000853041F08091E80083FFBCCF81E00895E7
:103FF00082E0089583E00895982F973028F08F701D
:104000008093E90081E008959093E900242F762FB2
:1040100050E0981731F07091EC002091ED00509134
:10402000F00021FD02C09F5FE8CF3091EB003E7FA2
:104030003093EB003091ED003D7F3093ED003091F7
:10404000EB0031603093EB007093EC002093ED00B7
:104050005093F0002091EE0027FDE5CF80E0089519
:1040600080916B0287FF13C08091E80082FF06C039
:104070008091E8008B778093E80004C080916A0209
:104080008111F2CF089580916A028823D9F380913B
:10409000E80080FFF8CF8091E8008E77ECCF209188
:1040A000E4003091E50085E69091EC0090FF06C0B9
:1040B0009091E80090FF06C080E008959091E8009C
:1040C00092FDFACF90916A02992391F0953091F088
:1040D0009091EB0095FD10C04091E4005091E500F7
:1040E0002417350709F381509A01F1F684E0089509
:1040F00082E0089583E0089581E008950E94EC2015
:104100000E94F420E0EEF0E0808181608083E8EDA1
:10411000F0E080818F77808319BCA7EDB0E08C91AF
:104120008E7F8C9380818F7E8083109269020895A8
:104130000F931F93CF93DF930E94EC200E94F420F3
:10414000C8EDD0E088818F778883888180688883F4
:1041500088818F7D888319BC10926A021092660252
:10416000109268021092670200EE10E0F801808160
:104170008B7F808388818160888342E060E080E07B
:104180000E94FC1FE1EEF0E080818E7F8083E2EEF2
:10419000F0E0808181608083808188608083F80185
:1041A00080818E7F8083888180618883DF91CF9139
:1041B0001F910F910895E8EDF0E080818F7E80835C
:1041C000E7EDF0E080818160808384E082BF81E060
:1041D000809369020C949820E8EDF0E080818E7F56
:1041E00080831092E20008951092DA001092E100AC
:1041F00008951F920F920FB60F9211242F933F93A1
:104200004F935F936F937F938F939F93AF93BF93DE
:10421000EF93FF938091E10082FF0BC08091E20059
:1042200082FF07C08091E1008B7F8093E1000E94B4
:104230005C238091DA0080FF19C08091D80080FF54
:1042400015C08091DA008E7F8093DA008091D900CA
:1042500080FF94C080E189BD82E189BD09B400FE80
:10426000FDCF81E080936A020E94721D8091E1007F
:1042700080FF19C08091E20080FF15C08091E200AC
:104280008E7F8093E2008091E20080618093E20063
:104290008091D80080628093D80019BC85E080931B
:1042A0006A020E94841D8091E10084FF29C08091F0
:1042B000E20084FF25C080E189BD82E189BD09B4A7
:1042C00000FEFDCF8091D8008F7D8093D800809133
:1042D000E1008F7E8093E1008091E2008F7E8093E9
:1042E000E2008091E20081608093E20080916602AA
:1042F000882309F449C084E080936A020E94851DE6
:104300008091E10083FF29C08091E20083FF25C0F6
:104310008091E100877F8093E10082E080936A02D0
:10432000109266028091E1008E7F8093E10080917F
:10433000E2008E7F8093E2008091E20080618093B2
:10434000E20042E060E080E00E94FC1F8091F0000B
:1043500088608093F0000E94831DFF91EF91BF91D0
:10436000AF919F918F917F916F915F914F913F910D
:104370002F910F900FBE0F901F90189519BC10929F
:104380006A020E94801D72CF8091E30087FD02C007
:1043900081E0B2CF83E0B0CF1F920F920FB60F92A1
:1043A00011242F933F934F935F936F937F938F933A
:1043B0009F93AF93BF93CF93EF93FF93C091E90087
:1043C000CF708091EC001092E9008091F000877F1F
:1043D0008093F00078940E9408221092E900809166
:1043E000F00088608093F000C093E900FF91EF91A6
:1043F000CF91BF91AF919F918F917F916F915F917D
:104400004F913F912F910F900FBE0F901F901895D5
:104410001F93CF93DF93CDB7DEB7AA970FB6F8946B
:10442000DEBF0FBECDBFEBE6F2E08091F1008193DD
:1044300022E0E337F207C9F70E949B1D8091E80054
:1044400083FF42C080916B0290916C029A3008F019
:104450003BC0E92FF0E0E15DFD4D0C94BE24392214
:104460005D2264225D226422B822DA2264222F2394
:104470003C23803879F0823839F580916F028F7053
:104480008093E9008091EB0085FB882780F91092EA
:10449000E90006C0809167029091680291118260E4
:1044A0009091E800977F9093E8008093F10010923C
:1044B000F1008091E8008E772DC0282F2D7F21F408
:1044C0008823D1F0823059F18091E80083FF0AC03F
:1044D0008091E800877F8093E8008091EB00806204
:1044E0008093EB00AA960FB6F894DEBF0FBECDBF47
:1044F000DF91CF911F91089580916D02813021F756
:10450000933009F080E0809368021092E900809176
:10451000E800877F8093E8000E943020D5CF80910B
:104520006D028111F2CF80916F028F7069F28093DA
:10453000E9002091EB0020FFE8CF933031F4809127
:10454000EB0080628093EB00E0CF9091EB009061F4
:104550009093EB0021E030E001C0220F8A95EAF74A
:104560002093EA001092EA008091EB008860EACF85
:104570008111AACF10916D021F778091E30080789E
:10458000812B8093E3008091E800877F8093E8008F
:104590000E9430208091E80080FFFCCF8091E300F2
:1045A00080688093E30083E0111101C082E0809372
:1045B0006A028ACF8058823008F086CF80916D02DF
:1045C00090916E028C3D23E09207A1F583E08A83EF
:1045D0008AE289834FB7F894DE01139620E03EE02B
:1045E00051E2E32FF0E050935700E49120FF03C025
:1045F000E295EF703F5FEF708E2F90E0EA30C0F0F1
:10460000C7968D939D932F5F243159F74FBF8091AB
:10461000E800877F8093E8006AE270E0CE010196AF
:104620000E943D1F8091E8008B778093E8004CCF7B
:10463000C096E7CFAE014F5F5F4F60916F020E945F
:10464000831EBC01892B09F43FCF9091E800977F2E
:104650009093E80089819A810E949C1FE3CF803863
:1046600009F032CF8091E800877F8093E800809145
:1046700066028093F1001DCF811126CF90916D02CB
:10468000923008F021CF8091E800877F8093E80086
:10469000909366020E94302080916602882331F058
:1046A00084E080936A020E94871D0ECF8091E30010
:1046B00087FDF6CF81E0F5CF0895CF9380916A0210
:1046C000882399F0C091E900CF708091EC0080FDC3
:1046D0000EC080E0C82B1092E9008091E80083FDB5
:1046E0000E940822CF70C093E900CF91089580E81E
:1046F000F1CF0E9480236894B1110C940F24089587
:104700000E94F42388F09F5798F0B92F9927B7514A
:10471000B0F0E1F0660F771F881F991F1AF0BA9565
:10472000C9F714C0B13091F00E940E24B1E0089591
:104730000C940E24672F782F8827B85F39F0B93F83
:10474000CCF3869577956795B395D9F73EF4909518
:104750008095709561957F4F8F4F9F4F0895E89496
:1047600009C097FB3EF490958095709561957F4FB9
:104770008F4F9F4F9923A9F0F92F96E9BB27939567
:10478000F695879577956795B795F111F8CFFAF477
:10479000BB0F11F460FF1BC06F5F7F4F8F4F9F4FA8
:1047A00016C0882311F096E911C0772321F09EE806
:1047B000872F762F05C0662371F096E8862F70E06C
:1047C00060E02AF09A95660F771F881FDAF7880F46
:1047D0009695879597F9089557FD9058440F551F62
:1047E00059F05F3F71F04795880F97FB991F61F073
:1047F0009F3F79F087950895121613061406551FEA
:10480000F2CF4695F1DF08C0161617061806991F55
:10481000F1CF86957105610508940895E894BB274A
:1048200066277727CB0197F908950E9428240C94D6
:1048300099240E948B2438F00E94922420F0952322
:1048400011F00C9482240C94882411240C940F24CD
:104850000E94EC2370F3959FC1F3950F50E0551F14
:10486000629FF001729FBB27F00DB11D639FAA27C5
:10487000F00DB11DAA1F649F6627B00DA11D661F14
:10488000829F2227B00DA11D621F739FB00DA11D35
:10489000621F839FA00D611D221F749F3327A00DEF
:1048A000611D231F849F600D211D822F762F6A2F8B
:1048B00011249F5750409AF0F1F088234AF0EE0FF0
:1048C000FF1FBB1F661F771F881F91505040A9F71D
:1048D0009E3F510580F00C9482240C940F245F3F7E
:1048E000E4F3983ED4F3869577956795B795F79559
:1048F000E7959F5FC1F7FE2B880F911D96958795D1
:1049000097F9089597F99F6780E870E060E008954F
:104910009FEF80EC089500240A94161617061806D7
:104920000906089500240A941216130614060506B3
:104930000895092E0394000C11F4882352F0BB0F44
:1049400040F4BF2B11F460FF04C06F5F7F4F8F4FA7
:104950009F4F089597FB072E16F4009407D077FD1C
:1049600009D00E94C42407FC05D03EF4909581959F
:104970009F4F0895709561957F4F0895EE0FFF1F2B
:104980000590F491E02D0994AA1BBB1B51E107C0CF
:10499000AA1FBB1FA617B70710F0A61BB70B881FCF
:1049A000991F5A95A9F780959095BC01CD0108955E
:1049B000F999FECF92BD81BDF89A992780B50895E7
:1049C000A8E1B0E042E050E00C940025262FF999D0
:1049D000FECF92BD81BDF89A019700B4021639F05E
:1049E0001FBA20BD0FB6F894FA9AF99A0FBE08952F
:1049F0000196272F0E94E7240C94E624DC01CB01CA
:104A0000FC01F999FECF06C0F2BDE1BDF89A3196DE
:104A100000B40D9241505040B8F70895F894FFCF7C
:104A200010022808140A321E901C221DFD1CC71CEF
:104A3000931C0130313233343536376667909192AA
:104A400093949597F0F1F4F5F6404D3639B70C6A2A
:0E4A50000C340CFB0B8E0BA70BC00BD90B000C
:00000001FF
